{
  "_format": "hh-sol-artifact-1",
  "contractName": "USDCEscrow",
  "sourceName": "contracts/USDCEscrow.sol",
  "abi": [
    {
      "inputs": [
        {
          "internalType": "address",
          "name": "_usdcAddress",
          "type": "address"
        },
        {
          "internalType": "address",
          "name": "_platformWallet",
          "type": "address"
        }
      ],
      "stateMutability": "nonpayable",
      "type": "constructor"
    },
    {
      "inputs": [
        {
          "internalType": "address",
          "name": "owner",
          "type": "address"
        }
      ],
      "name": "OwnableInvalidOwner",
      "type": "error"
    },
    {
      "inputs": [
        {
          "internalType": "address",
          "name": "account",
          "type": "address"
        }
      ],
      "name": "OwnableUnauthorizedAccount",
      "type": "error"
    },
    {
      "inputs": [],
      "name": "ReentrancyGuardReentrantCall",
      "type": "error"
    },
    {
      "inputs": [
        {
          "internalType": "address",
          "name": "token",
          "type": "address"
        }
      ],
      "name": "SafeERC20FailedOperation",
      "type": "error"
    },
    {
      "anonymous": false,
      "inputs": [
        {
          "indexed": true,
          "internalType": "string",
          "name": "orderId",
          "type": "string"
        },
        {
          "indexed": true,
          "internalType": "address",
          "name": "initiator",
          "type": "address"
        },
        {
          "indexed": false,
          "internalType": "uint256",
          "name": "timestamp",
          "type": "uint256"
        }
      ],
      "name": "DisputeRaised",
      "type": "event"
    },
    {
      "anonymous": false,
      "inputs": [
        {
          "indexed": true,
          "internalType": "string",
          "name": "orderId",
          "type": "string"
        },
        {
          "indexed": false,
          "internalType": "enum USDCEscrow.DisputeOutcome",
          "name": "outcome",
          "type": "uint8"
        },
        {
          "indexed": false,
          "internalType": "uint256",
          "name": "clientAmount",
          "type": "uint256"
        },
        {
          "indexed": false,
          "internalType": "uint256",
          "name": "builderAmount",
          "type": "uint256"
        }
      ],
      "name": "DisputeResolved",
      "type": "event"
    },
    {
      "anonymous": false,
      "inputs": [
        {
          "indexed": true,
          "internalType": "string",
          "name": "orderId",
          "type": "string"
        },
        {
          "indexed": true,
          "internalType": "address",
          "name": "client",
          "type": "address"
        },
        {
          "indexed": true,
          "internalType": "address",
          "name": "builder",
          "type": "address"
        },
        {
          "indexed": false,
          "internalType": "uint256",
          "name": "totalAmount",
          "type": "uint256"
        },
        {
          "indexed": false,
          "internalType": "uint256",
          "name": "platformFee",
          "type": "uint256"
        }
      ],
      "name": "EscrowCreated",
      "type": "event"
    },
    {
      "anonymous": false,
      "inputs": [
        {
          "indexed": true,
          "internalType": "string",
          "name": "orderId",
          "type": "string"
        },
        {
          "indexed": false,
          "internalType": "uint256",
          "name": "milestoneIndex",
          "type": "uint256"
        },
        {
          "indexed": false,
          "internalType": "uint256",
          "name": "amount",
          "type": "uint256"
        }
      ],
      "name": "MilestoneApproved",
      "type": "event"
    },
    {
      "anonymous": false,
      "inputs": [
        {
          "indexed": true,
          "internalType": "string",
          "name": "orderId",
          "type": "string"
        },
        {
          "indexed": false,
          "internalType": "uint256",
          "name": "milestoneIndex",
          "type": "uint256"
        },
        {
          "indexed": false,
          "internalType": "uint256",
          "name": "amount",
          "type": "uint256"
        },
        {
          "indexed": true,
          "internalType": "address",
          "name": "builder",
          "type": "address"
        }
      ],
      "name": "MilestonePaid",
      "type": "event"
    },
    {
      "anonymous": false,
      "inputs": [
        {
          "indexed": true,
          "internalType": "string",
          "name": "orderId",
          "type": "string"
        },
        {
          "indexed": false,
          "internalType": "uint256",
          "name": "milestoneIndex",
          "type": "uint256"
        },
        {
          "indexed": false,
          "internalType": "uint256",
          "name": "timestamp",
          "type": "uint256"
        }
      ],
      "name": "MilestoneSubmitted",
      "type": "event"
    },
    {
      "anonymous": false,
      "inputs": [
        {
          "indexed": true,
          "internalType": "string",
          "name": "orderId",
          "type": "string"
        },
        {
          "indexed": true,
          "internalType": "address",
          "name": "client",
          "type": "address"
        },
        {
          "indexed": false,
          "internalType": "uint256",
          "name": "amount",
          "type": "uint256"
        }
      ],
      "name": "OrderRefunded",
      "type": "event"
    },
    {
      "anonymous": false,
      "inputs": [
        {
          "indexed": true,
          "internalType": "address",
          "name": "previousOwner",
          "type": "address"
        },
        {
          "indexed": true,
          "internalType": "address",
          "name": "newOwner",
          "type": "address"
        }
      ],
      "name": "OwnershipTransferred",
      "type": "event"
    },
    {
      "anonymous": false,
      "inputs": [
        {
          "indexed": false,
          "internalType": "uint256",
          "name": "newFeePercent",
          "type": "uint256"
        }
      ],
      "name": "PlatformFeeUpdated",
      "type": "event"
    },
    {
      "inputs": [],
      "name": "ARBITER_RESPONSE_TIME",
      "outputs": [
        {
          "internalType": "uint256",
          "name": "",
          "type": "uint256"
        }
      ],
      "stateMutability": "view",
      "type": "function"
    },
    {
      "inputs": [],
      "name": "DISPUTE_WINDOW",
      "outputs": [
        {
          "internalType": "uint256",
          "name": "",
          "type": "uint256"
        }
      ],
      "stateMutability": "view",
      "type": "function"
    },
    {
      "inputs": [
        {
          "internalType": "string",
          "name": "_orderId",
          "type": "string"
        },
        {
          "internalType": "uint256",
          "name": "_milestoneIndex",
          "type": "uint256"
        }
      ],
      "name": "approveMilestone",
      "outputs": [],
      "stateMutability": "nonpayable",
      "type": "function"
    },
    {
      "inputs": [
        {
          "internalType": "string",
          "name": "_orderId",
          "type": "string"
        },
        {
          "internalType": "uint256",
          "name": "_milestoneIndex",
          "type": "uint256"
        }
      ],
      "name": "autoApproveMilestone",
      "outputs": [],
      "stateMutability": "nonpayable",
      "type": "function"
    },
    {
      "inputs": [
        {
          "internalType": "string",
          "name": "_orderId",
          "type": "string"
        },
        {
          "internalType": "address",
          "name": "_builder",
          "type": "address"
        },
        {
          "internalType": "uint256",
          "name": "_totalAmount",
          "type": "uint256"
        },
        {
          "internalType": "uint256[]",
          "name": "_milestoneAmounts",
          "type": "uint256[]"
        },
        {
          "internalType": "string[]",
          "name": "_milestoneDescriptions",
          "type": "string[]"
        },
        {
          "internalType": "uint256[]",
          "name": "_milestoneDeadlines",
          "type": "uint256[]"
        }
      ],
      "name": "createEscrow",
      "outputs": [],
      "stateMutability": "nonpayable",
      "type": "function"
    },
    {
      "inputs": [
        {
          "internalType": "string",
          "name": "_orderId",
          "type": "string"
        },
        {
          "internalType": "uint256",
          "name": "_milestoneIndex",
          "type": "uint256"
        }
      ],
      "name": "getMilestone",
      "outputs": [
        {
          "internalType": "uint256",
          "name": "amount",
          "type": "uint256"
        },
        {
          "internalType": "string",
          "name": "description",
          "type": "string"
        },
        {
          "internalType": "enum USDCEscrow.MilestoneStatus",
          "name": "status",
          "type": "uint8"
        },
        {
          "internalType": "uint256",
          "name": "submittedAt",
          "type": "uint256"
        },
        {
          "internalType": "uint256",
          "name": "approvalDeadline",
          "type": "uint256"
        }
      ],
      "stateMutability": "view",
      "type": "function"
    },
    {
      "inputs": [
        {
          "internalType": "string",
          "name": "_orderId",
          "type": "string"
        }
      ],
      "name": "getOrder",
      "outputs": [
        {
          "internalType": "address",
          "name": "client",
          "type": "address"
        },
        {
          "internalType": "address",
          "name": "builder",
          "type": "address"
        },
        {
          "internalType": "uint256",
          "name": "totalAmount",
          "type": "uint256"
        },
        {
          "internalType": "uint256",
          "name": "platformFee",
          "type": "uint256"
        },
        {
          "internalType": "uint256",
          "name": "releasedAmount",
          "type": "uint256"
        },
        {
          "internalType": "enum USDCEscrow.OrderStatus",
          "name": "status",
          "type": "uint8"
        },
        {
          "internalType": "bool",
          "name": "inDispute",
          "type": "bool"
        },
        {
          "internalType": "uint256",
          "name": "milestoneCount",
          "type": "uint256"
        }
      ],
      "stateMutability": "view",
      "type": "function"
    },
    {
      "inputs": [
        {
          "internalType": "string",
          "name": "",
          "type": "string"
        }
      ],
      "name": "orderExists",
      "outputs": [
        {
          "internalType": "bool",
          "name": "",
          "type": "bool"
        }
      ],
      "stateMutability": "view",
      "type": "function"
    },
    {
      "inputs": [
        {
          "internalType": "string",
          "name": "",
          "type": "string"
        }
      ],
      "name": "orders",
      "outputs": [
        {
          "internalType": "string",
          "name": "orderId",
          "type": "string"
        },
        {
          "internalType": "address",
          "name": "client",
          "type": "address"
        },
        {
          "internalType": "address",
          "name": "builder",
          "type": "address"
        },
        {
          "internalType": "uint256",
          "name": "totalAmount",
          "type": "uint256"
        },
        {
          "internalType": "uint256",
          "name": "platformFee",
          "type": "uint256"
        },
        {
          "internalType": "uint256",
          "name": "releasedAmount",
          "type": "uint256"
        },
        {
          "internalType": "enum USDCEscrow.OrderStatus",
          "name": "status",
          "type": "uint8"
        },
        {
          "internalType": "bool",
          "name": "inDispute",
          "type": "bool"
        },
        {
          "internalType": "uint256",
          "name": "disputeRaisedAt",
          "type": "uint256"
        }
      ],
      "stateMutability": "view",
      "type": "function"
    },
    {
      "inputs": [],
      "name": "owner",
      "outputs": [
        {
          "internalType": "address",
          "name": "",
          "type": "address"
        }
      ],
      "stateMutability": "view",
      "type": "function"
    },
    {
      "inputs": [],
      "name": "platformFeePercent",
      "outputs": [
        {
          "internalType": "uint256",
          "name": "",
          "type": "uint256"
        }
      ],
      "stateMutability": "view",
      "type": "function"
    },
    {
      "inputs": [],
      "name": "platformWallet",
      "outputs": [
        {
          "internalType": "address",
          "name": "",
          "type": "address"
        }
      ],
      "stateMutability": "view",
      "type": "function"
    },
    {
      "inputs": [
        {
          "internalType": "string",
          "name": "_orderId",
          "type": "string"
        }
      ],
      "name": "raiseDispute",
      "outputs": [],
      "stateMutability": "nonpayable",
      "type": "function"
    },
    {
      "inputs": [
        {
          "internalType": "string",
          "name": "_orderId",
          "type": "string"
        }
      ],
      "name": "refundOrder",
      "outputs": [],
      "stateMutability": "nonpayable",
      "type": "function"
    },
    {
      "inputs": [],
      "name": "renounceOwnership",
      "outputs": [],
      "stateMutability": "nonpayable",
      "type": "function"
    },
    {
      "inputs": [
        {
          "internalType": "string",
          "name": "_orderId",
          "type": "string"
        },
        {
          "internalType": "enum USDCEscrow.DisputeOutcome",
          "name": "_outcome",
          "type": "uint8"
        },
        {
          "internalType": "uint256",
          "name": "_clientPercentage",
          "type": "uint256"
        }
      ],
      "name": "resolveDispute",
      "outputs": [],
      "stateMutability": "nonpayable",
      "type": "function"
    },
    {
      "inputs": [
        {
          "internalType": "string",
          "name": "_orderId",
          "type": "string"
        },
        {
          "internalType": "uint256",
          "name": "_milestoneIndex",
          "type": "uint256"
        }
      ],
      "name": "submitMilestone",
      "outputs": [],
      "stateMutability": "nonpayable",
      "type": "function"
    },
    {
      "inputs": [
        {
          "internalType": "address",
          "name": "newOwner",
          "type": "address"
        }
      ],
      "name": "transferOwnership",
      "outputs": [],
      "stateMutability": "nonpayable",
      "type": "function"
    },
    {
      "inputs": [
        {
          "internalType": "uint256",
          "name": "_newFeePercent",
          "type": "uint256"
        }
      ],
      "name": "updatePlatformFee",
      "outputs": [],
      "stateMutability": "nonpayable",
      "type": "function"
    },
    {
      "inputs": [
        {
          "internalType": "address",
          "name": "_newPlatformWallet",
          "type": "address"
        }
      ],
      "name": "updatePlatformWallet",
      "outputs": [],
      "stateMutability": "nonpayable",
      "type": "function"
    },
    {
      "inputs": [],
      "name": "usdc",
      "outputs": [
        {
          "internalType": "contract IERC20",
          "name": "",
          "type": "address"
        }
      ],
      "stateMutability": "view",
      "type": "function"
    }
  ],
  "bytecode": "0x60a060405260fa6002553480156200001657600080fd5b506040516200292f3803806200292f8339810160408190526200003991620001ba565b600160005533806200006657604051631e4fbdf760e01b8152600060048201526024015b60405180910390fd5b62000071816200014b565b506001600160a01b038216620000ca5760405162461bcd60e51b815260206004820152601460248201527f496e76616c69642055534443206164647265737300000000000000000000000060448201526064016200005d565b6001600160a01b038116620001225760405162461bcd60e51b815260206004820152601760248201527f496e76616c696420706c6174666f726d2077616c6c657400000000000000000060448201526064016200005d565b6001600160a01b03918216608052600380546001600160a01b03191691909216179055620001f2565b600180546001600160a01b038381166001600160a01b0319831681179093556040519116919082907f8be0079c531659141344cd1fd0a4f28419497f9722a3daafe3b4186f6b6457e090600090a35050565b80516001600160a01b0381168114620001b557600080fd5b919050565b60008060408385031215620001ce57600080fd5b620001d9836200019d565b9150620001e9602084016200019d565b90509250929050565b6080516126f06200023f6000396000818161019a0152818161064b01528181610a4a01528181610df501528181610e3701528181610e7601528181611ced0152611e0001526126f06000f3fe608060405234801561001057600080fd5b50600436106101375760003560e01c80638da5cb5b116100b8578063d0d95b051161007c578063d0d95b05146102d2578063da8c31f3146102e5578063f1d8580514610309578063f2fde38b1461031c578063f585dc571461032f578063fa2af9da1461033957600080fd5b80638da5cb5b146102535780639b708c9f14610264578063a959d5851461026e578063aa0b5988146102ac578063ada4ef30146102bf57600080fd5b8063712ca0f8116100ff578063712ca0f8146101e7578063715018a61461020e578063725a3b4b14610216578063750521c8146102295780638c639a851461023c57600080fd5b806304521ddb1461013c5780630fc30711146101515780631a948947146101645780633e413bee146101955780635c25ca9e146101d4575b600080fd5b61014f61014a366004612091565b61034c565b005b61014f61015f366004612157565b6108a6565b610177610172366004612157565b610aea565b60405161018c9998979695949392919061220a565b60405180910390f35b6101bc7f000000000000000000000000000000000000000000000000000000000000000081565b6040516001600160a01b03909116815260200161018c565b61014f6101e2366004612278565b610bda565b6101fa6101f5366004612157565b610f14565b60405161018c9897969594939291906122d6565b61014f610fa0565b61014f610224366004612157565b610fb4565b61014f61023736600461232c565b611169565b61024560025481565b60405190815260200161018c565b6001546001600160a01b03166101bc565b6102456212750081565b61029c61027c366004612157565b805160208183018101805160058252928201919093012091525460ff1681565b604051901515815260200161018c565b61014f6102ba366004612371565b611399565b61014f6102cd36600461238a565b61141d565b61014f6102e036600461232c565b61148f565b6102f86102f336600461232c565b6116e2565b60405161018c9594939291906123ac565b61014f61031736600461232c565b61185f565b61014f61032a36600461238a565b611a34565b61024562093a8081565b6003546101bc906001600160a01b031681565b610354611a6f565b60058660405161036491906123f3565b9081526040519081900360200190205460ff16156103c05760405162461bcd60e51b81526020600482015260146024820152734f7264657220616c72656164792065786973747360601b60448201526064015b60405180910390fd5b6001600160a01b0385166104165760405162461bcd60e51b815260206004820152601760248201527f496e76616c6964206275696c646572206164647265737300000000000000000060448201526064016103b7565b336001600160a01b0386160361046e5760405162461bcd60e51b815260206004820152601860248201527f4275696c6465722063616e6e6f7420626520636c69656e74000000000000000060448201526064016103b7565b600084116104be5760405162461bcd60e51b815260206004820152601760248201527f416d6f756e74206d75737420626520706f73697469766500000000000000000060448201526064016103b7565b815183511480156104d0575080518351145b61051c5760405162461bcd60e51b815260206004820181905260248201527f4d696c6573746f6e6520617272617973206c656e677468206d69736d6174636860448201526064016103b7565b6000805b84518110156105c157600085828151811061053d5761053d61240f565b6020026020010151116105925760405162461bcd60e51b815260206004820152601860248201527f496e76616c6964206d696c6573746f6e6520616d6f756e74000000000000000060448201526064016103b7565b8481815181106105a4576105a461240f565b6020026020010151826105b7919061243b565b9150600101610520565b508481146106115760405162461bcd60e51b815260206004820152601e60248201527f4d696c6573746f6e652073756d206d75737420657175616c20746f74616c000060448201526064016103b7565b6000612710600254876106249190612454565b61062e919061246b565b9050600061063c828861243b565b90506106736001600160a01b037f000000000000000000000000000000000000000000000000000000000000000016333084611a99565b600060048a60405161068591906123f3565b9081526040519081900360200190209050806106a18b8261250f565b50600181018054336001600160a01b0319918216179091556002820180549091166001600160a01b038b16179055600381018890556004810183905560006005820181905560068201805461ffff191690555b875181101561080457816008016040518060a001604052808a848151811061071e5761071e61240f565b6020026020010151815260200189848151811061073d5761073d61240f565b602002602001015181526020016000600481111561075d5761075d6121e4565b81526020016000815260200188848151811061077b5761077b61240f565b60209081029190910181015190915282546001818101855560009485529382902083516005909202019081559082015191929091908201906107bd908261250f565b50604082015160028201805460ff191660018360048111156107e1576107e16121e4565b0217905550606082015160038201556080909101516004909101556001016106f4565b50600160058b60405161081791906123f3565b908152604051908190036020018120805492151560ff19909316929092179091556001600160a01b038a16903390610850908d906123f3565b604080519182900382208c835260208301889052917fd4075823b902da5cbb9ab648f5487489caf5b331bc5a054f981b62e04fd2223a910160405180910390a45050505061089e6001600055565b505050505050565b6108ae611a6f565b60006004826040516108c091906123f3565b908152602001604051809103902090506005826040516108e091906123f3565b9081526040519081900360200190205460ff1661090f5760405162461bcd60e51b81526004016103b7906125cf565b60018101546001600160a01b031633148061093457506001546001600160a01b031633145b6109715760405162461bcd60e51b815260206004820152600e60248201526d139bdd08185d5d1a1bdc9a5e995960921b60448201526064016103b7565b6000600682015460ff16600381111561098c5761098c6121e4565b146109a95760405162461bcd60e51b81526004016103b7906125fd565b6005810154156109f45760405162461bcd60e51b8152602060048201526016602482015275119d5b991cc8185b1c9958591e481c995b19585cd95960521b60448201526064016103b7565b6006810154610100900460ff1615610a1e5760405162461bcd60e51b81526004016103b790612627565b600081600401548260030154610a34919061243b565b6001830154909150610a73906001600160a01b037f00000000000000000000000000000000000000000000000000000000000000008116911683611b06565b60068201805460ff1916600217905560018201546040516001600160a01b0390911690610aa19085906123f3565b604051908190038120838252907f1723a6e225e498c38f2c5f61bd8e77b280ffc28bc96ad92c6fc6989ad9051a5a9060200160405180910390a35050610ae76001600055565b50565b8051602081830181018051600482529282019190930120915280548190610b109061248d565b80601f0160208091040260200160405190810160405280929190818152602001828054610b3c9061248d565b8015610b895780601f10610b5e57610100808354040283529160200191610b89565b820191906000526020600020905b815481529060010190602001808311610b6c57829003601f168201915b50505060018401546002850154600386015460048701546005880154600689015460079099015497986001600160a01b039586169894909516965091945092909160ff808316926101009004169089565b610be2611b37565b610bea611a6f565b6000600484604051610bfc91906123f3565b90815260200160405180910390209050600584604051610c1c91906123f3565b9081526040519081900360200190205460ff16610c4b5760405162461bcd60e51b81526004016103b7906125cf565b6006810154610100900460ff16610c985760405162461bcd60e51b81526020600482015260116024820152704e6f20616374697665206469737075746560781b60448201526064016103b7565b621275008160070154610cab919061243b565b421115610cfa5760405162461bcd60e51b815260206004820152601a60248201527f44697370757465207265736f6c7574696f6e206578706972656400000000000060448201526064016103b7565b612710821115610d415760405162461bcd60e51b8152602060048201526012602482015271496e76616c69642070657263656e7461676560701b60448201526064016103b7565b600081600501548260030154610d57919061264f565b90506000806001866003811115610d7057610d706121e4565b03610d7d57829150610ddc565b6002866003811115610d9157610d916121e4565b03610d9d575081610ddc565b6003866003811115610db157610db16121e4565b03610ddc57612710610dc38685612454565b610dcd919061246b565b9150610dd9828461264f565b90505b8115610e1e576001840154610e1e906001600160a01b037f00000000000000000000000000000000000000000000000000000000000000008116911684611b06565b8015610e60576002840154610e60906001600160a01b037f00000000000000000000000000000000000000000000000000000000000000008116911683611b06565b6003546004850154610ea0916001600160a01b037f0000000000000000000000000000000000000000000000000000000000000000811692911690611b06565b60068401805461ffff19166002179055604051610ebe9088906123f3565b60405180910390207f98ca35a33b85ba384918382b32bdc7859be0a10caefe5e27435b2d40a9d9c319878484604051610ef993929190612662565b60405180910390a250505050610f0f6001600055565b505050565b600080600080600080600080600060048a604051610f3291906123f3565b9081526040519081900360200190206001810154600282015460038301546004840154600585015460068601546008909601546001600160a01b039586169f50939094169c50909a50985090965060ff80831696506101009092049091169350915050919395975091939597565b610fa8611b37565b610fb26000611b64565b565b6000600482604051610fc691906123f3565b90815260200160405180910390209050600582604051610fe691906123f3565b9081526040519081900360200190205460ff166110155760405162461bcd60e51b81526004016103b7906125cf565b60018101546001600160a01b031633148061103c575060028101546001600160a01b031633145b6110795760405162461bcd60e51b815260206004820152600e60248201526d139bdd08185d5d1a1bdc9a5e995960921b60448201526064016103b7565b6000600682015460ff166003811115611094576110946121e4565b146110b15760405162461bcd60e51b81526004016103b7906125fd565b6006810154610100900460ff16156111045760405162461bcd60e51b8152602060048201526016602482015275111a5cdc1d5d1948185b1c9958591e481c985a5cd95960521b60448201526064016103b7565b60068101805442600784015561ffff1916610103179055604051339061112b9084906123f3565b604051908190038120428252907f27fa90971b66777e07575f648a5fa9d7b1b4b0a755ec7646f0307165edd5f53f9060200160405180910390a35050565b600060048360405161117b91906123f3565b9081526020016040518091039020905060058360405161119b91906123f3565b9081526040519081900360200190205460ff166111ca5760405162461bcd60e51b81526004016103b7906125cf565b60028101546001600160a01b031633146112265760405162461bcd60e51b815260206004820152601760248201527f4f6e6c79206275696c6465722063616e207375626d697400000000000000000060448201526064016103b7565b6000600682015460ff166003811115611241576112416121e4565b1461125e5760405162461bcd60e51b81526004016103b7906125fd565b6006810154610100900460ff16156112885760405162461bcd60e51b81526004016103b790612627565b600881015482106112ab5760405162461bcd60e51b81526004016103b790612683565b60008160080183815481106112c2576112c261240f565b6000918252602082206005909102019150600282015460ff1660048111156112ec576112ec6121e4565b146113315760405162461bcd60e51b81526020600482015260156024820152744d696c6573746f6e65206e6f742070656e64696e6760581b60448201526064016103b7565b60028101805460ff191660011790554260038201556040516113549085906123f3565b60408051918290038220858352426020840152917fbbde2641a0d563711047ba42d9f7dc4fa65d4f642db2d4a713df396bbf291ea2910160405180910390a250505050565b6113a1611b37565b6103e88111156113e25760405162461bcd60e51b815260206004820152600c60248201526b08ccaca40e8dede40d0d2ced60a31b60448201526064016103b7565b60028190556040518181527f45610d581145924dd7090a5017e5f2b1d6f42213bb2e95707ff86846bbfcb1ca9060200160405180910390a150565b611425611b37565b6001600160a01b03811661146d5760405162461bcd60e51b815260206004820152600f60248201526e496e76616c6964206164647265737360881b60448201526064016103b7565b600380546001600160a01b0319166001600160a01b0392909216919091179055565b611497611a6f565b60006004836040516114a991906123f3565b908152602001604051809103902090506005836040516114c991906123f3565b9081526040519081900360200190205460ff166114f85760405162461bcd60e51b81526004016103b7906125cf565b6000600682015460ff166003811115611513576115136121e4565b146115305760405162461bcd60e51b81526004016103b7906125fd565b6006810154610100900460ff161561155a5760405162461bcd60e51b81526004016103b790612627565b6008810154821061157d5760405162461bcd60e51b81526004016103b790612683565b60008160080183815481106115945761159461240f565b6000918252602090912060059091020190506001600282015460ff1660048111156115c1576115c16121e4565b146116085760405162461bcd60e51b8152602060048201526017602482015276135a5b195cdd1bdb99481b9bdd081cdd589b5a5d1d1959604a1b60448201526064016103b7565b8060040154816003015461161c919061243b565b42101561166b5760405162461bcd60e51b815260206004820152601d60248201527f417070726f76616c20646561646c696e65206e6f74207265616368656400000060448201526064016103b7565b6002818101805460ff191690911790556040516116899085906123f3565b6040805191829003822083548684526020840152917e7e4bcf54aafb6d4f1612631c95258597692233958c6b4047650fb3f5862681910160405180910390a26116d28484611bb6565b50506116de6001600055565b5050565b6000606060008060006005876040516116fb91906123f3565b9081526040519081900360200190205460ff1661172a5760405162461bcd60e51b81526004016103b7906125cf565b600060048860405161173c91906123f3565b908152604051908190036020019020600881015490915087106117715760405162461bcd60e51b81526004016103b790612683565b60008160080188815481106117885761178861240f565b906000526020600020906005020190508060000154816001018260020160009054906101000a900460ff16836003015484600401548380546117c99061248d565b80601f01602080910402602001604051908101604052809291908181526020018280546117f59061248d565b80156118425780601f1061181757610100808354040283529160200191611842565b820191906000526020600020905b81548152906001019060200180831161182557829003601f168201915b505050505093509650965096509650965050509295509295909350565b611867611a6f565b600060048360405161187991906123f3565b9081526020016040518091039020905060058360405161189991906123f3565b9081526040519081900360200190205460ff166118c85760405162461bcd60e51b81526004016103b7906125cf565b60018101546001600160a01b031633146119245760405162461bcd60e51b815260206004820152601760248201527f4f6e6c7920636c69656e742063616e20617070726f766500000000000000000060448201526064016103b7565b6000600682015460ff16600381111561193f5761193f6121e4565b1461195c5760405162461bcd60e51b81526004016103b7906125fd565b6006810154610100900460ff16156119865760405162461bcd60e51b81526004016103b790612627565b600881015482106119a95760405162461bcd60e51b81526004016103b790612683565b60008160080183815481106119c0576119c061240f565b6000918252602090912060059091020190506001600282015460ff1660048111156119ed576119ed6121e4565b1461166b5760405162461bcd60e51b8152602060048201526017602482015276135a5b195cdd1bdb99481b9bdd081cdd589b5a5d1d1959604a1b60448201526064016103b7565b611a3c611b37565b6001600160a01b038116611a6657604051631e4fbdf760e01b8152600060048201526024016103b7565b610ae781611b64565b600260005403611a9257604051633ee5aeb560e01b815260040160405180910390fd5b6002600055565b6040516001600160a01b038481166024830152838116604483015260648201839052611b009186918216906323b872dd906084015b604051602081830303815290604052915060e01b6020820180516001600160e01b038381831617835250505050611e3a565b50505050565b6040516001600160a01b03838116602483015260448201839052610f0f91859182169063a9059cbb90606401611ace565b6001546001600160a01b03163314610fb25760405163118cdaa760e01b81523360048201526024016103b7565b600180546001600160a01b038381166001600160a01b0319831681179093556040519116919082907f8be0079c531659141344cd1fd0a4f28419497f9722a3daafe3b4186f6b6457e090600090a35050565b6000600483604051611bc891906123f3565b908152602001604051809103902090506000816008018381548110611bef57611bef61240f565b60009182526020909120600590910201905060028082015460ff166004811115611c1b57611c1b6121e4565b14611c575760405162461bcd60e51b815260206004820152600c60248201526b139bdd08185c1c1c9bdd995960a21b60448201526064016103b7565b6003600282015460ff166004811115611c7257611c726121e4565b03611cae5760405162461bcd60e51b815260206004820152600c60248201526b105b1c9958591e481c185a5960a21b60448201526064016103b7565b60028101805460ff191660031790558054600583018054600090611cd390849061243b565b909155505060028201548154611d17916001600160a01b037f0000000000000000000000000000000000000000000000000000000000000000811692911690611b06565b60028201546040516001600160a01b0390911690611d369086906123f3565b6040805191829003822084548784526020840152917f010d4b043c334cf7cfbcd39d87f7893d2cbe0246aba7cd7537569a540222a2c0910160405180910390a3600160005b6008840154811015611ddc576003846008018281548110611d9e57611d9e61240f565b600091825260209091206002600590920201015460ff166004811115611dc657611dc66121e4565b14611dd45760009150611ddc565b600101611d7b565b508015611e335760068301805460ff191660011790556003546004840154611e33917f00000000000000000000000000000000000000000000000000000000000000006001600160a01b0390811692911690611b06565b5050505050565b600080602060008451602086016000885af180611e5d576040513d6000823e3d81fd5b50506000513d91508115611e75578060011415611e82565b6001600160a01b0384163b155b15611b0057604051635274afe760e01b81526001600160a01b03851660048201526024016103b7565b634e487b7160e01b600052604160045260246000fd5b604051601f8201601f1916810167ffffffffffffffff81118282101715611eea57611eea611eab565b604052919050565b600082601f830112611f0357600080fd5b813567ffffffffffffffff811115611f1d57611f1d611eab565b611f30601f8201601f1916602001611ec1565b818152846020838601011115611f4557600080fd5b816020850160208301376000918101602001919091529392505050565b80356001600160a01b0381168114611f7957600080fd5b919050565b600067ffffffffffffffff821115611f9857611f98611eab565b5060051b60200190565b600082601f830112611fb357600080fd5b81356020611fc8611fc383611f7e565b611ec1565b8083825260208201915060208460051b870101935086841115611fea57600080fd5b602086015b848110156120065780358352918301918301611fef565b509695505050505050565b600082601f83011261202257600080fd5b81356020612032611fc383611f7e565b82815260059290921b8401810191818101908684111561205157600080fd5b8286015b8481101561200657803567ffffffffffffffff8111156120755760008081fd5b6120838986838b0101611ef2565b845250918301918301612055565b60008060008060008060c087890312156120aa57600080fd5b863567ffffffffffffffff808211156120c257600080fd5b6120ce8a838b01611ef2565b97506120dc60208a01611f62565b96506040890135955060608901359150808211156120f957600080fd5b6121058a838b01611fa2565b9450608089013591508082111561211b57600080fd5b6121278a838b01612011565b935060a089013591508082111561213d57600080fd5b5061214a89828a01611fa2565b9150509295509295509295565b60006020828403121561216957600080fd5b813567ffffffffffffffff81111561218057600080fd5b61218c84828501611ef2565b949350505050565b60005b838110156121af578181015183820152602001612197565b50506000910152565b600081518084526121d0816020860160208601612194565b601f01601f19169290920160200192915050565b634e487b7160e01b600052602160045260246000fd5b60048110610ae757610ae76121e4565b600061012080835261221e8184018d6121b8565b6001600160a01b038c811660208601528b166040850152606084018a90526080840189905260a0840188905291506122579050856121fa565b60c082019490945291151560e0830152610100909101529695505050505050565b60008060006060848603121561228d57600080fd5b833567ffffffffffffffff8111156122a457600080fd5b6122b086828701611ef2565b9350506020840135600481106122c557600080fd5b929592945050506040919091013590565b6001600160a01b03898116825288166020820152604081018790526060810186905260808101859052610100810161230d856121fa565b60a082019490945291151560c083015260e09091015295945050505050565b6000806040838503121561233f57600080fd5b823567ffffffffffffffff81111561235657600080fd5b61236285828601611ef2565b95602094909401359450505050565b60006020828403121561238357600080fd5b5035919050565b60006020828403121561239c57600080fd5b6123a582611f62565b9392505050565b85815260a0602082015260006123c560a08301876121b8565b9050600585106123d7576123d76121e4565b8460408301528360608301528260808301529695505050505050565b60008251612405818460208701612194565b9190910192915050565b634e487b7160e01b600052603260045260246000fd5b634e487b7160e01b600052601160045260246000fd5b8082018082111561244e5761244e612425565b92915050565b808202811582820484141761244e5761244e612425565b60008261248857634e487b7160e01b600052601260045260246000fd5b500490565b600181811c908216806124a157607f821691505b6020821081036124c157634e487b7160e01b600052602260045260246000fd5b50919050565b601f821115610f0f576000816000526020600020601f850160051c810160208610156124f05750805b601f850160051c820191505b8181101561089e578281556001016124fc565b815167ffffffffffffffff81111561252957612529611eab565b61253d81612537845461248d565b846124c7565b602080601f831160018114612572576000841561255a5750858301515b600019600386901b1c1916600185901b17855561089e565b600085815260208120601f198616915b828110156125a157888601518255948401946001909101908401612582565b50858210156125bf5787850151600019600388901b60f8161c191681555b5050505050600190811b01905550565b60208082526014908201527313dc99195c88191bd95cc81b9bdd08195e1a5cdd60621b604082015260600190565b60208082526010908201526f4f72646572206e6f742061637469766560801b604082015260600190565b6020808252600e908201526d13dc99195c88191a5cdc1d5d195960921b604082015260600190565b8181038181111561244e5761244e612425565b6060810161266f856121fa565b938152602081019290925260409091015290565b60208082526017908201527f496e76616c6964206d696c6573746f6e6520696e64657800000000000000000060408201526060019056fea2646970667358221220ddc937c513f040ebf7e831a4ddfadef7c87f3d84761d9339845a02a6738c9bf764736f6c63430008180033",
  "linkReferences": {},
  "deployedLinkReferences": {}
}